:100000000C94E7010C940F020C940F020C940F0255
:100010000C940F020C940F020C940F020C940F021C
:100020000C940F020C940F020C940F020C940F020C
:100030000C940F020C940F020C940F020C940F02FC
:100040000C94D1050C940F020C949F050C94790527
:100050000C940F020C940F020C940F020C940F02DC
:100060000C940F020C940F02000000080002010023
:100070000003040700000000000000000000000072
:10008000000000038080808000008002A0A0A0000B
:10009000000000045050F850F85050062078A0702E
:1000A00028F02006C0C81020409818066090A04094
:1000B000A8906806C04080000000000320408080B7
:1000C0008040200480402020204080040020A87030
:1000D000A8200006002020F82020000600000000D4
:1000E000C04080030000F80000000006000000008F
:1000F00000C0C0030008102040800006708898A847
:10010000C888700640C040404040E0047088081035
:100110002040F806F8102010088870061030509023
:10012000F8101006F880F00808887006304080F05B
:1001300088887006F888081020202006708888704B
:1001400088887006708888780810600600C0C00033
:10015000C0C0000300C0C000C04080031020408029
:10016000402010050000F800F80000068040201034
:1001700020408005708808102000200670880868DC
:10018000A8A8700670888888F8888806F08888F0A3
:100190008888F0067088808080887006E090888863
:1001A0008890E006F88080F08080F806F88080F083
:1001B00080808006708880B888887806888888F86B
:1001C00088888806E04040404040E0043810101025
:1001D000109060068890A0C0A090880680808080E3
:1001E0008080F80688D8A8A8888888068888C8A843
:1001F000988888067088888888887006F08888F0D3
:100200008080800670888888A8906806F08888F0CA
:10021000A0908806788080700808F006F8202020DA
:1002200020202006888888888888700688888888A2
:1002300088502006888888A8A8A85006888850205A
:10024000508888068888885020202006F8081020CA
:100250004080F806E08080808080E00400804020BC
:1002600010080006E02020202020E0042050880014
:1002700000000006000000000000F806804020009A
:100280000000000400007008788878068080B0C8FC
:100290008888F006000070888088700608086898D2
:1002A0008888780600007088F8807006304840E042
:1002B0004040400600788888780870068080B0C882
:1002C000888888064000C0404040E004100030109C
:1002D00010906005808090A0C0A09005C040404074
:1002E0004040E0040000D0A8A88888060000B0C8FC
:1002F0008888880600007088888870060000F0886A
:10030000F080800600006898780808060000B0C8F1
:1003100080808006000070807008F0064040E04059
:100320004048300600008888889868060000888861
:1003300088502006000088A8A8A850060000885011
:100340002050880600008888780870060000F810A1
:100350002040F8062040408040402004808080807B
:10036000808080028040402040408004000000687F
:10037000900000066090906000000005006066003C
:1003800081661805405F75746B616C202020000049
:10039000000000250028002B00000000002400279A
:1003A000002A0004040404040404040202020202F9
:1003B0000203030303030301020408102040800129
:1003C0000204081020010204081020001B0611245A
:1003D0001FBECFEFD8E0DEBFCDBF22E0A8E3B1E083
:1003E00001C01D92AE3BB207E1F711E0A0E0B1E021
:1003F000E8EFF2E102C005900D92A833B107D9F7FA
:1004000011E0C7EED1E004C02197FE010E946F0900
:10041000C63ED107C9F70E94FA060C947A090C94DB
:10042000000090E0FC01E954FC4F2491FC01ED55E3
:10043000FC4F8491882399F090E0880F991FFC016C
:10044000E756FC4FA591B491FC01E157FC4F859113
:1004500094918FB7F894EC91E22BEC938FBF0895B1
:10046000E1E8F1E0A089B18982E08C93A485B585AB
:100470001C92A685B7858FEC8C93108EA489B589C4
:1004800086E08C93A289B3898C9180618C93A28938
:10049000B3898C9188608C93A289B3898C91806890
:1004A0008C930288F389E02D80818F7D808308956D
:1004B000CF92DF92EF92FF920F931F93CF93DF9330
:1004C0006C017A018B01C0E0D0E0CE15DF0589F028
:1004D000D8016D918D01D601ED91FC910190F081D3
:1004E000E02DC6010995892B11F47E0102C02196E9
:1004F000ECCFC701DF91CF911F910F91FF90EF904B
:10050000DF90CF900895089580E090E00895FC0179
:10051000538D448D252F30E0842F90E0821B930B68
:10052000541710F0CF96089501970895FC01918D0E
:10053000828D981761F0828DDF01A80FB11D5D9645
:100540008C91928D9F5F9F73928F90E008958FEFB3
:100550009FEF0895FC01918D828D981731F0828D67
:10056000E80FF11D858D90E008958FEF9FEF0895BE
:10057000FC01918D228D892F90E0805C9F4F821B22
:1005800091098F739927089581E891E00E94B8023C
:1005900021E0892B09F420E0822F0895FC01848D4D
:1005A000DF01A80FB11DA35ABF4F2C91848D90E09D
:1005B00001968F739927848FA689B7892C93A08978
:1005C000B1898C9180648C93938D848D981306C02F
:1005D0000288F389E02D80818F7D80830895EF92DA
:1005E000FF920F931F93CF93DF93EC0181E0888FED
:1005F0009B8D8C8D981305C0E889F989808185FDD4
:1006000024C0F62E0B8D10E00F5F1F4F0F731127C4
:10061000E02E8C8DE8120CC00FB607FCFACFE889EB
:10062000F989808185FFF5CFCE010E94CE02F1CFFE
:100630008B8DFE01E80FF11DE35AFF4FF0820B8F07
:10064000EA89FB898081806207C0EE89FF89608327
:10065000E889F98980818064808381E090E0DF917E
:10066000CF911F910F91FF90EF900895CF93DF935B
:10067000EC01888D8823C9F0EA89FB89808185FD9A
:1006800005C0A889B9898C9186FD0FC00FB607FCFB
:10069000F5CF808185FFF2CFA889B9898C9185FF3C
:1006A000EDCFCE010E94CE02E7CFDF91CF9108952A
:1006B00080E090E0892B29F00E94C40281110C9403
:1006C0000000089590E0FC01E859FF4F3491FC01CF
:1006D000E954FC4F2491FC01ED55FC4FE491EE23CD
:1006E00009F43BC0332339F1333091F038F4313021
:1006F000A9F0323001F584B58F7D12C0373091F00A
:100700003830A1F03430B9F4809180008F7D03C07F
:10071000809180008F77809380000DC084B58F77A3
:1007200084BD09C08091B0008F7703C08091B00074
:100730008F7D8093B000F0E0EE0FFF1FE157FC4F7C
:10074000A591B4918FB7F894EC91611103C02095F5
:100750002E2301C02E2B2C938FBF08953FB7F89402
:1007600080913D0190913E01A0913F01B0914001E7
:1007700026B5A89B05C02F3F19F00196A11DB11DFC
:100780003FBFBA2FA92F982F8827820F911DA11D37
:10079000B11DBC01CD0142E0660F771F881F991F74
:1007A0004A95D1F708952FB7F89460913901709167
:1007B0003A0180913B0190913C012FBF08958F92A7
:1007C0009F92AF92BF92CF92DF92EF92FF926B0116
:1007D0007C010E94D3034B015C01C60ED71EE81EAC
:1007E000F91E0E94D303681579058A059B0528F038
:1007F000C616D706E806F906A0F7FF90EF90DF903F
:10080000CF90BF90AF909F908F9008952F923F927E
:100810004F925F926F927F928F929F92AF92BF9210
:10082000CF92DF92EF92FF920F931F93CF93DF93BC
:1008300000D0CDB7DEB78C0149832A83660F771FBE
:10084000F801EA5AFF4FE080F180EE0CFF1CF8013E
:10085000CF01801B910B8E159F0514F41192F8CFD8
:100860008981F801E60FF71F81838A81808358010F
:1008700084E5A80EB11C60E0F50180810E9462034E
:10088000E00EF11E4801F2E58F0E911C380180E563
:10089000680E711CC701801B910B1816190624F5F0
:1008A000F701C2907F01F4013080F301208087E0DE
:1008B000482E512CD12CB601042C02C07595679599
:1008C0000A94E2F761707727822D0E94620361E04B
:1008D000832D0E94620360E0832D0E946203F1E099
:1008E0004F1A510840F7D6CF61E0F50180810F9093
:1008F0000F90DF91CF911F910F91FF90EF90DF90BC
:10090000CF90BF90AF909F908F907F906F905F90AF
:100910004F903F902F900C946203242F97FD1CC0A2
:100920004091BC025091BD0284179507ACF4683029
:10093000710590F4FC0133E0EE0FFF1F3A95E1F7EB
:10094000EA59FD4FE60FF71F208B41E0460FBC012F
:1009500086E692E00C9406040895CF92DF92EF921F
:10096000FF920F931F93CF93DF9301E411E0C0E058
:10097000D0E0F8014481BE0183E090E00E948D0444
:10098000F801C080D180E280F3804F2D5527662783
:100990007727BE0182E090E00E948D04A7016627C0
:1009A0007727BE0181E090E00E948D0477276F2DAC
:1009B0005E2D4D2DBE0180E090E00E948D042196B9
:1009C000085F1F4FC730D105A1F6DF91CF911F916E
:1009D0000F91FF90EF90DF90CF900895CF92DF922C
:1009E000EF92FF920F931F93CF93DF938C017B01C4
:1009F0006B0183E0CC0CDD1C8A95E1F7C1E0D0E00F
:100A0000FE01EC0DFD1DE00FF11F178620E04C2FBD
:100A1000B701C8010E9406042196C930D10581F7AB
:100A2000DF91CF911F910F91FF90EF90DF90CF90CA
:100A300008950E9475096115710579F0FB01019017
:100A40000020E9F73197AF01461B570BDC01ED9110
:100A5000FC910280F381E02D099480E090E00895FC
:100A60004F925F926F927F92EF92FF920F931F933C
:100A7000CF93DF93CDB7DEB7A1970FB6F894DEBF63
:100A80000FBECDBF7C01FA01CB0119A2223008F4C0
:100A90002AE08E010F5D1F4F422E512C612C712CCC
:100AA000BF01A30192010E944D09F901CA01015041
:100AB00011096A3014F4605D01C0695CD8016C935F
:100AC000232B242B252B61F7B801C7010E941B059E
:100AD000A1960FB6F894DEBF0FBECDBFDF91CF91C8
:100AE0001F910F91FF90EF907F906F905F904F90CC
:100AF00008951F920F920FB60F9211242F933F93D8
:100B00004F935F936F937F938F939F93AF93BF9315
:100B1000EF93FF9381E891E00E94CE02FF91EF9165
:100B2000BF91AF919F918F917F916F915F914F9105
:100B30003F912F910F900FBE0F901F9018951F920D
:100B40000F920FB60F9211242F938F939F93EF93D1
:100B5000FF93E0919101F09192018081E0919701E2
:100B6000F091980182FD12C0908180919A018F5F6F
:100B70008F7320919B01821751F0E0919A01F0E070
:100B8000EF57FE4F958F80939A0101C08081FF91AE
:100B9000EF919F918F912F910F900FBE0F901F900B
:100BA00018951F920F920FB60F9211242F933F9317
:100BB0008F939F93AF93BF938091390190913A01A6
:100BC000A0913B01B0913C013091380123E0230F0B
:100BD0002D3720F40196A11DB11D05C026E8230F75
:100BE0000296A11DB11D2093380180933901909385
:100BF0003A01A0933B01B0933C0180913D0190915B
:100C00003E01A0913F01B09140010196A11DB11D8F
:100C100080933D0190933E01A0933F01B09340012A
:100C2000BF91AF919F918F913F912F910F900FBEE8
:100C30000F901F901895CF93DF931092840110921C
:100C4000830188EE93E0A0E0B0E08093850190936B
:100C50008601A0938701B093880184E091E090938E
:100C600082018093810185EC90E090938E018093C6
:100C70008D0184EC90E09093900180938F0180EC43
:100C800090E0909392018093910181EC90E0909399
:100C900094018093930182EC90E09093960180936D
:100CA000950186EC90E090939801809397011092C3
:100CB0009A0110929B0110929C0110929D0110923A
:100CC00024021092250210922602109227021092FE
:100CD00028021092290210922A0210922B021092DE
:100CE0002C0210922D0210922E0210922F021092BE
:100CF0003002109231021092320210923302CCE094
:100D0000D0E0D093B702C093B6028BE090E090930E
:100D1000B9028093B8028AE090E09093BB0280937E
:100D2000BA0281E090E09093BD028093BC028CE017
:100D30000E9411028091B8020E9411028091BA02B1
:100D40000E94110261E08091BA020E946203D09376
:100D5000B702C093B602E6E7F2E0119282E0E63B0A
:100D6000F807D9F7C0E0D0E08091BC029091BD02B5
:100D7000C817D907E4F520E04FE0BE0186E692E00F
:100D80000E940604D7FD0EC08091BC029091BD0266
:100D9000C817D9073CF427E04BE0BE0186E692E095
:100DA0000E94060420E049E0BE0186E692E00E942F
:100DB0000604D7FD1AC08091BC029091BD02C817ED
:100DC000D9072CF4BE0186E692E00E94EE048091E1
:100DD000BC029091BD02C817D9073CF420E04CE05A
:100DE000BE0186E692E00E9406042196BDCFDF9107
:100DF000CF910895789484B5826084BD84B5816074
:100E000084BD85B5826085BD85B5816085BD8091D5
:100E10006E00816080936E0010928100809181004D
:100E20008260809381008091810081608093810045
:100E3000809180008160809380008091B100846007
:100E40008093B1008091B00081608093B000809168
:100E50007A00846080937A0080917A008260809327
:100E60007A0080917A00816080937A0080917A0084
:100E7000806880937A001092C100109262021092F2
:100E80006302109264021092650210922002109286
:100E90002102109222021092230268EB7BE080E094
:100EA00090E00E94DF0381E891E0909361028093DB
:100EB00060020E9430020E94D3036093200270936C
:100EC0002102809322029093230262E171E08091DB
:100ED0006002909161020E941B056AE070E080E070
:100EE00090E00E94DF0381E0809334020E94300290
:100EF0008091BC029091BD021816190644F421E0BD
:100F00004CE060E070E086E692E00E94060480918A
:100F1000BC029091BD021816190644F42AE04AE07A
:100F200060E070E086E692E00E9406048091BC02D8
:100F30009091BD021816190634F460E070E086E660
:100F400092E00E94EE0444EF842E99249394A12C05
:100F5000B12C0E94D303672B682B692B41F40E94AC
:100F6000D303623071058105910508F40AC10E941E
:100F7000D30360937D0170937E0180937F019093F2
:100F800080010091790110917A0120917B013091CB
:100F90007C01601771078207930740F46093790121
:100FA00070937A0180937B0190937C010091790189
:100FB00010917A0120917B0130917C016B017C01C1
:100FC000C01AD10AE20AF30A970186010A3F110505
:100FD0002105310508F4D5C06093790170937A0139
:100FE00080937B0190937C0180922C0290922D0241
:100FF000A0922E02B0922F02109230021092310273
:1010000010923202109233028091240290912502B4
:10101000A0912602B0912702809328029093290282
:10102000A0932A02B0932B020E94D3036093240260
:101030007093250280932602909327020E94D30387
:1010400060932002709321028093220290932302E6
:101050000E94D3032B013C0164E271E080916002A5
:10106000909161020E941B052AE041E050E060E09F
:1010700070E080916002909161020E9430056BE205
:1010800071E080916002909161020E941B052AE04C
:10109000B301A20180916002909161020E9430052B
:1010A0006DE271E080916002909161020E941B05E7
:1010B0008091240290912502A0912602B0912702EE
:1010C000B301A201481B590B6A0B7B0B2AE08091EC
:1010D0006002909161020E9430056DE271E08091A2
:1010E0006002909161020E941B0540912402509180
:1010F000250260912602709127028091280290912A
:101100002902A0912A02B0912B02481B590B6A0BAD
:101110007B0B2AE080916002909161020E94300571
:101120006FE271E080916002909161020E941B0564
:101130000E94D303AB01BC012AE080916002909130
:1011400061020E943005C0916002D091610261E3AA
:1011500071E0CE010E941B0561E271E0CE010E94A8
:101160001B0565E070E080E090E00E94DF030E94D4
:10117000D3036093240270932502809326029093F8
:10118000270204E813E0F8018491282E312C8052C4
:10119000803638F00F5F1F4F2328A9F70E945803AD
:1011A000D8CEC101809733E0880F991F3A95E1F7B7
:1011B000A1E4B1E020E030E0F901E80FF91FE458C4
:1011C000FF4FE4914D915D916D917C9113974E2B62
:1011D0004D935D936D937C9313972F5F3F4F1896BC
:1011E0002730310549F7FC01ED57FF4FC491D0E09E
:1011F000DC1781F2A1E4B1E04D905D906D907C90A0
:101200001397B301A201440F551F661F771F4D931B
:101210005D936D937C93139714964D915D916D91B1
:101220007C911797440F551F661F771F77FC41600D
:1012300014964D935D936D937C9317971896F1E0F8
:10124000A937BF07C9F60E94AD040E94AE036B0127
:101250007C018CE3482E512C612C712C0E94AE0332
:10126000DC01CB018C199D09AE09BF09883E934072
:10127000A105B10558F021E0421A51086108710832
:1012800088EEC80E83E0D81EE11CF11C4114510405
:101290006104710419F7DF5FABCFA1E21A2EAA1B1C
:1012A000BB1BFD010DC0AA1FBB1FEE1FFF1FA21716
:1012B000B307E407F50720F0A21BB30BE40BF50B13
:1012C000661F771F881F991F1A9469F7609570959C
:1012D000809590959B01AC01BD01CF010895EE0F63
:1012E000FF1F0590F491E02D099481E090E0F894BF
:0812F0000C947A09F894FFCF79
:1012F80000000000EF02580287023603B802960287
:10130800AA02564D4450565F317C315F564D4450C9
:10131800560D0A00564D4450455F003A323A007C5B
:08132800005F564D44504500E2
:107E0000112484B714BE81FFF0D085E080938100F7
:107E100082E08093C00088E18093C10086E0809377
:107E2000C20080E18093C4008EE0C9D0259A86E02C
:107E300020E33CEF91E0309385002093840096BBD3
:107E4000B09BFECF1D9AA8958150A9F7CC24DD24C4
:107E500088248394B5E0AB2EA1E19A2EF3E0BF2EE7
:107E6000A2D0813461F49FD0082FAFD0023811F036
:107E7000013811F484E001C083E08DD089C08234E0
:107E800011F484E103C0853419F485E0A6D080C0E4
:107E9000853579F488D0E82EFF2485D0082F10E0AE
:107EA000102F00270E291F29000F111F8ED06801E7
:107EB0006FC0863521F484E090D080E0DECF843638
:107EC00009F040C070D06FD0082F6DD080E0C81688
:107ED00080E7D80618F4F601B7BEE895C0E0D1E017
:107EE00062D089930C17E1F7F0E0CF16F0E7DF06D8
:107EF00018F0F601B7BEE89568D007B600FCFDCFD4
:107F0000A601A0E0B1E02C9130E011968C91119780
:107F100090E0982F8827822B932B1296FA010C0160
:107F200087BEE89511244E5F5F4FF1E0A038BF0790
:107F300051F7F601A7BEE89507B600FCFDCF97BE46
:107F4000E89526C08437B1F42ED02DD0F82E2BD052
:107F50003CD0F601EF2C8F010F5F1F4F84911BD097
:107F6000EA94F801C1F70894C11CD11CFA94CF0C13
:107F7000D11C0EC0853739F428D08EE10CD085E9AC
:107F80000AD08FE07ACF813511F488E018D01DD067
:107F900080E101D065CF982F8091C00085FFFCCF94
:107FA0009093C60008958091C00087FFFCCF809118
:107FB000C00084FD01C0A8958091C6000895E0E648
:107FC000F0E098E1908380830895EDDF803219F02E
:107FD00088E0F5DFFFCF84E1DECF1F93182FE3DFCA
:107FE0001150E9F7F2DF1F91089580E0E8DFEE27F6
:047FF000FF270994CA
:027FFE00040479
:0400000300007E007B
:00000001FF